:020000040800F2
:100000009014002049420008A32E0008E92E0008A1
:1000100000000000000000000000000000000000E0
:10002000000000000000000000000000CB140008E9
:100030000000000000000000D3150008ED2E0008AD
:10004000F3170008031800081B2C00084B2C0008AD
:100050009F410008E743000827440008EF2E0008EE
:100060002F4700087F4900082B4C00082D4C000842
:100070002F4C0008314C0008334C0008354C000868
:10008000374C0008394C0008812B0008ED2F000880
:100090003D35000811320008F53400083B4C0008DB
:1000A0003D4C00083F4C0008414C0008434C000800
:1000B000454C0008474C0008494C000853746172D5
:1000C000742E2E2E000000004C6F6F70696E672E2C
:1000D0002E2E0A00000000000404043C3C00000036
:1000E00000000800000008000800000000000800F0
:1000F000000008000000000000020406080A0C10BE
:1001000014000000AAAAAAAA5555555500010000DE
:1001100000B5010049B2002905D40121C006C00E76
:100120008140A448016000BDF0B5020052B2002A2F
:100130001BD40322A04B040064B2A40804256C4322
:100140001C59FF251600064008277E43B540AC43E6
:100150008901C9B2024008256A439140214340B257
:10016000800804225043195022E00F24B34A03238D
:1001700005006DB22540083DAD0804267543060014
:1001800076B23440083CA408042674431659FF276D
:10019000BC461C00044008277C436746A740BE437A
:1001A0008901C9B20340082043439940314351516A
:1001B000F0BDA3480168802252000A4302607047E4
:1001C0009F480068810A0800C007C00F70479D491A
:1001D0000A6807239A4310430860704799480168EA
:1001E00038200840704797490A68974B13401843D6
:1001F0000860704793490A68B04B13401843086081
:100200007047B2490A68030C1B049A430004104368
:10021000086070478A480168802252040A430260DD
:10022000704787480068410E0800C007C00F70473C
:1002300070B4B04C2568B04E2E40304301431002DC
:1002400008430343236070BC7047AA4801688022BA
:1002500052050A430260704781B0A8490A68024308
:100260000A60096808400090009801B0704781B0AA
:10027000AD490A6802430A60096808400090009886
:1002800001B0704781B0A9490A6802430A60096851
:1002900008400090009801B07047A5490A680723FC
:1002A0009A43104308607047A14800684007400F18
:1002B0007047016801220A4302607047016880228A
:1002C000914301607047026A11430162704710B5A3
:1002D000012901D1002124E0042901D1012120E0DC
:1002E000102901D102211CE0402901D1032118E08D
:1002F00080225200914201D1042112E08022D200DA
:10030000914201D105210CE080225201914201D19C
:10031000062106E080225202914201D1072100E02D
:1003200008211830B04A0B00DBB2D25C801802689A
:100330000423AE4CC9B2615C8B409A43026010BD8D
:1003400010B5012901D1002124E0042901D10121A6
:1003500020E0102901D102211CE0402901D1032114
:1003600018E080225200914201D1042112E0802243
:10037000D200914201D105210CE08022520191422C
:1003800001D1062106E080225202914201D10721CB
:1003900000E008211830944A0B00DBB2D25C8018D0
:1003A00002680823914CC9B2615C8B40134303601F
:1003B00010BD000000E100E000E400E070B501299C
:1003C00001D1002124E0042901D1012120E01029DC
:1003D00001D102211CE0402901D1032118E0802332
:1003E0005B00994201D1042112E08023DB00994295
:1003F00001D105210CE080235B01994201D1062146
:1004000006E080235B02994201D1072100E0082128
:100410001830754B0C00E4B21B5DC018BB4B046870
:10042000F0250E00F6B29E5DB540AC43120CC9B289
:10043000595C8A402243026070BD00001CED00E060
:100440000010024008100240FFF0FFFF70B50129C4
:1004500001D1002124E0042901D1012120E010294B
:1004600001D102211CE0402901D1032118E08023A1
:100470005B00994201D1042112E08023DB00994204
:1004800001D105210CE080235B01994201D10621B5
:1004900006E080235B02994201D1072100E0082198
:1004A000C34C036A0A250E00F6B2A65DB540AB4305
:1004B000C9B2615C8A401A43026270BDFF8FFFFFC0
:1004C0008268BC4B1340194381607047541002404E
:1004D000426870239A431143416070474268B64BAB
:1004E00013401943416070478268B44B134019436D
:1004F000816070470C1002408C80FF1F3C1002404E
:1005000081688022914381607047C16801220A435B
:10051000C2607047C16840229143C1607047C168A2
:10052000A74A0A40C260704740100240341002409F
:10053000002002408161704781627047016840225B
:100540000A4302607047426810239A431143416096
:100550007047806841080800C007C00F7047806876
:10056000C1090800C007C00F704701737047DF481A
:1005700000687047DE48006870470020DC4908606A
:10058000704710B50220FFF788FEFFF78DFE0228A6
:10059000FBD1FFF70EFEFFF713FE0128FBD18023EE
:1005A0009B05082200210220FFF742FEFFF732FEE2
:1005B000FFF74BFEFFF735FE0128FBD10020FFF7C8
:1005C00012FE0220FFF703FEFFF708FE1028FBD102
:1005D0000020FFF70FFEC74C200000F004FB2000B6
:1005E00000F019FB10BD0000D4000008E000000876
:1005F000F8B586B018220021684600F017FB0120EC
:10060000FFF740FE0420FFF73DFE0220FFF73AFE11
:10061000ED4F40213800FFF78FFF8021EB48FFF7B7
:100620008BFF402600960124019400250295039536
:1006300004956946380000F05DFB8020009001942D
:100640000295039504956946E04800F053FB009637
:1006500001940295039504956946380000F04AFB21
:1006600007B0F0BD18B58BB01422002106A800F029
:10067000DDFA18220021684600F0D8FA0220FFF7C0
:10068000EBFD0120FFF7FEFD4020009002200190CD
:100690000024029403940494012005906946A0204C
:1006A000C00500F027FB2000694608830794E7484F
:1006B00008900994E64C06A9200000F075FB200084
:1006C000FFF7FCFD50212000FFF70EFF072120005F
:1006D000FFF7F6FE002201212000FFF76FFE002247
:1006E00001212000FFF7B2FE2000FFF713FF2000DA
:1006F000FFF715FF00212000FFF7EAFE2000FFF7BB
:10070000FFFE2000FFF7D5FD0CB010BDEC00000887
:1007100078B593B0142200210EA800F087FA2022A9
:10072000002106A800F082FA18220021684600F095
:100730007DFA80200002FFF79AFD20206946088795
:1007400000240F94FA25AD0010951194E84E0EA9DF
:10075000300000F029FB3000FFF7B0FD302006909C
:100760000794089409950A9406AA0121300000F024
:1007700067FB01213000FFF7AAFD3000FFF799FD6C
:1007800001213000FFF79FFD0120FFF77BFD1020C6
:100790000090022001900294039404940420059098
:1007A0006946A020C00500F0A5FA14B070BD000095
:1007B000F8000008F8BFFEFFFFFF0FFF8FFFCFFF1D
:1007C000FFBFFFFF30B59FB0142200211AA800F030
:1007D0002DFA2022002112A800F028FA3022002150
:1007E00006A800F023FA18220021684600F01EFA3D
:1007F0008020C003FFF705FD80200001FFF737FDD3
:1008000000210D20FFF790FC0D20FFF781FC1AA8B6
:100810008E49018000241B948021C9001C911D94E5
:1008200021000174E14D1AA9280000F0BDFA28004A
:10083000FFF744FD00212800FFF742FE01212800B8
:10084000FFF77EFD602012901394149480208000A6
:100850001590169417941894199412AA012128003F
:1008600000F0EEFA01212800FFF731FD00212800F9
:10087000FFF72EFE00212800FFF730FE2800FFF7CB
:100880003FFE06940794089406A8210001732100F6
:10089000C181802080010A900B940C940D948020DB
:1008A00080040E900F941094119406A9280000F073
:1008B00003FB2800FFF7FDFC01212800FFF703FDE3
:1008C0002800FFF722FE0120FFF7DCFC802040001B
:1008D00000900220019002940394049405906946CC
:1008E000A020C00500F006FA1FB030BDC80F0020E0
:1008F000CC0F00200090D00318B58BB0142200213B
:1009000006A800F093F918220021684600F08EF93D
:100910000120FFF7A1FC0120FFF7B4FC01200090AB
:1009200002200190002402940394049405906946E7
:10093000A020C00500F0DEF9200069460883079476
:100940000020C043089009948024E40506A92000F3
:1009500000F02AFA2000FFF7B1FC50212000FFF739
:10096000C3FD07212000FFF7ABFD0022012120007D
:10097000FFF724FD002201212000FFF767FD200082
:10098000FFF7C8FD2000FFF7CAFD00212000FFF798
:100990009FFD2000FFF7B4FD2000FFF78AFC0CB09C
:1009A00010BD5348016801220A430260704780204D
:1009B000C005016801220A430260704724480168AB
:1009C00001220A43026070470008005000040050F2
:1009D00010B590B02822002106A800F027F91822AF
:1009E0000021684600F022F980204001FFF73FFC1B
:1009F0000120FFF747FCE0200090022001900290C8
:100A000000240394049405946946A020C00500F0D6
:100A100071F90694822040000790E020C000089001
:100A200009940A94802080000B9010200C900D9463
:100A30005F4C06A9200000F01EFC00212000FFF7FB
:100A400082FD2000FFF77AFD10B010BDFFFF00000F
:100A500000040040FEB500246E4622003270020001
:100A600092B2120A7270B0700800000CF070080A9E
:100A700030717171A027FF0510213800FFF75CFD70
:100A80000AE04B4D2800FFF764FD0028F9D0315DE6
:100A90002800FFF76AFD641C062CF2DB4448FFF7D0
:100AA0005EFD0028FAD110213800FFF743FDF7BDA5
:100AB00080B501211020FFF7CDFF642000F099F8E8
:100AC00000216020FFF7C6FF00213A48FFF7C2FF70
:100AD00000213948FFF7BEFF80219220C000FFF7B8
:100AE000B9FF8821C9003548FFF7B4FF01BD0000F8
:100AF0000020004030B589B01822002103A800F082
:100B000095F80420FFF7BEFB01240394002504950B
:100B1000079503A9A020C00500F0ECF80C220021E5
:100B2000684600F083F8009468462100017245721F
:100B30008472684600F024FC0720FFF7E9FA09B048
:100B400030BD80B51E4800F095FC0120FFF78FFBFB
:100B500080204005FFF780FB00F0A0FCFFF711FDAF
:100B6000FFF746FDFFF77EFDFFF7D2FDFFF72AFEF8
:100B7000FFF7C2FEFFF72CFFFFF7BCFFFFF798FF60
:100B8000FFF70FFFFFF713FFFFF718FF0D4800F007
:100B900071FCFFF7EFFC0028F8D0FFF7EEFCFFF741
:100BA000E6FC094900F092FCF0D2FEE7002C01407F
:100BB00000300140050400008104000091040000A1
:100BC000BC000008C8000008001BB74900B500F0D1
:100BD000A9FC401E11490860002011490860052049
:100BE0001049086000BD80B5FA218900FFF7EEFFCB
:100BF00001BD80B50B490A680092009A0022D243D9
:100C0000904205D0401C03E00A68D20300D5401E84
:100C10000028F9D101BD04490860704714E000E0E4
:100C200018E000E010E000E00000002010B5040033
:100C3000080011000200200000F0CCFC200010BDD4
:100C400030B403680C004C4303256C43A3430C00F1
:100C50004C4354431C43046030BC704743688B438F
:100C6000514319434160704730B483680C004C43D2
:100C700003256C43A3430C004C4354431C43846042
:100C800030BC704730B4C3680C004C4303256C4340
:100C9000A3430C004C4354431C43C46030BC704716
:100CA00030B4036A0C004C434C434C430F256C4357
:100CB000A3430C004C434C434C4354431C43046239
:100CC00030BC704730B4446A0B0A0D0A6B430D0AFE
:100CD0006B430D0A6B430F256B439C430B0A0D0AB4
:100CE0006B430D0A6B43090A4B435343234343624F
:100CF00030BC7047F8B507000D0000262BE06A698C
:100D000021003800FFF7DEFF24E028680124B4400A
:100D10000440002C1ED06A6821003800FFF790FFC5
:100D20006868012802D06868022804D1AA682100F6
:100D30003800FFF799FF2A6921003800FFF7A2FF6A
:100D40006868022806D1FF2CD9D86A6921003800CA
:100D5000FFF7A6FF761C2868F0400028D5D1686808
:100D6000012802D06868022804D1EA68296838009E
:100D7000FFF774FF0020F2BD81627047C1627047C7
:100D8000016370474163704781637047C163704777
:100D900001647047826D81657047C1657047416924
:100DA00001220A434261704770B504000D002068BB
:100DB000224EB44206D08021C9058C4202D0394966
:100DC0008C4204D170218843010068680843B44212
:100DD00012D08021C9058C420ED032498C420BD0F2
:100DE00031498C4208D031498C4205D030498C427F
:100DF00002D030498C4203D151490140E868084390
:100E00002060A9682000FFF7B9FF29882000FFF7BC
:100E1000B3FFB44208D02548844205D02448844218
:100E200002D02448844203D1297C2000FFF7A8FF88
:100E30002000FFF7B4FF002070BD0000002C01402F
:100E400010B503000C0011000120641E10D00F3CEF
:100E500012D0F03C14D0F0221201A41A14D0F022C7
:100E60001202A41A14D0F0221203A41A14D017E00C
:100E7000180000F067F813E0180000F0A2F80FE087
:100E8000180000F0E1F80BE0180000F01FF907E08F
:100E9000180000F05DF903E0180000F093F9FFE797
:100EA000C0B210BD000400400020004000400140DE
:100EB000004401400048014010B50022FF239A433E
:100EC0000B7B13431E4C1C408A682243994B1340F2
:100ED0004A681A43984B13400A681A43974B1340C9
:100EE000CA891343964C1C400A692243954B134010
:100EF000CA6A1A43944B1340CA6A1A43934B9842E6
:100F000007D1AB4C14404A692243AA4C14408A6969
:100F1000224398420FD1A84B13404A6A1A43A74B69
:100F20001340CA691A43A64B13400A6A1A43BE4BC0
:100F300013408A6A1A434264002010BD000000007A
:100F4000FFFCFFFF70B50400206A0122904320627D
:100F5000236A6068A2690325AA43B44D15400A6854
:100F60002A430225AB430E691E4301239E434D686D
:100F70003543764B9C4208D0AE4B9C4205D0AE4BDD
:100F80009C4202D0AD4B9C4212D108239D434B6939
:100F90009B002B430425AB438D68AD001D43A44B40
:100FA000034088691843A74B0340C86940001843B1
:100FB0006060A261C9682000FFF7E4FE256200209E
:100FC00070BD70B504001020C043226A0240226246
:100FD000236A6268A5699A4E2E409B4D35400E6883
:100FE00036022E432025AB430D692D011D432840B9
:100FF0004B681D0105435548844208D08D48844202
:1010000005D08D48844202D08C48844213D1802080
:101010008543486980012843402398438B689D019C
:101020000543444B1340886980001843424B0340FA
:10103000C869C2001A436260A661C9682000FFF750
:10104000A3FE2562002070BD70B504007848226AB6
:1010500002402262256A6268E3690326B343734E45
:101060001E400B683343774E2E400D692D023543E9
:1010700028404D682D0205433448844208D06D480D
:10108000844205D06C48844202D06C48844213D11B
:10109000294E2E40486980023043264E064088681B
:1010A00085023543254E1640886900013043244EA1
:1010B0000640C869420132436260E361C9682000AA
:1010C000FFF764FE2562002070BD0000F8B5040043
:1010D0001A48226A02402262256A6268E369584F10
:1010E0001F40594E3E400B681B023343144E2E40A6
:1010F0000D692D03354328404D682D0305431348E2
:10110000844208D04B48844205D04B48844202D0E8
:101110004A48844204D10B4810408A699201024334
:101120006260E361C9682000FFF732FE256200209B
:10113000F2BD0000FFFBFFFFFFF7FFFFFFEFFFFF28
:10114000FFDFFFFFFFBFFFFFFF7FFFFF002C01401E
:1011500038B504003D48226A02402262236A626D6B
:10116000324D15400A682A43394D1D400B691B0456
:101170002B4303404D682D041D43364B9C4208D041
:101180002C4B9C4205D02C4B9C4202D02B4B9C42BA
:1011900005D1636818408B691B0203436360626575
:1011A000C9682000FFF7F6FD2562002032BD00006F
:1011B000FFFFF0FFFFFFFFEFFFFF0FFFFFFFFFFE4F
:1011C000FFFFFFFD38B504002348226A0240226277
:1011D000236A626D1C4D15400A6812022A431F4D96
:1011E0001D400B691B052B4318404B681D0505432B
:1011F0001848844208D00F48844205D00E488442E3
:1012000002D00E48844206D16068154B03408869BD
:101210008002184360606265C9682000FFF7BDFD69
:101220002562002032BD0000FFFFFFDF8FFFFEFFC1
:10123000FFFEFFFF00400140004401400048014024
:10124000FFFCFFFFFFFDFFFFFF8FFFFEFFFFFEFF25
:10125000FFFFFDFF002C0140FFFFEFFFFFFFDFFF5F
:10126000FFFFFBFF006881090800C007C00F70473F
:1012700089B20161704770B505000C000126280095
:10128000FFF7F0FF002826D12868164901402068A2
:10129000084361680143E0680843216901436069CC
:1012A0000843A1690143E0690843216A01432960B9
:1012B00068680D490140A06808436169090C014351
:1012C0006960206A80218901884203D1616A28000F
:1012D000FFF7CEFF0026E86904490140E9613000CC
:1012E000C0B270BD4000FFFFFBF0FFFFFFF7FFFF44
:1012F0001D490A681043086070471C490A6810437A
:101300000860704718490A6882430A6070471749A5
:101310000A6882430A60704715490A6810430860EA
:10132000704714490A6810430860704710490A68FA
:1013300082430A6070470F490A6882430A60704717
:101340000D490A681043086070470B490A688243D8
:101350000A60704709490A681043086070470749E6
:101360000A6882430A607047801802409018024061
:1013700084180240941802400018024004180240E9
:1013800038B504000025207A002865D020680028A0
:101390003FD0607A002803D002280FD007D314E092
:1013A0002068FFF7C3FF2068FFF7A2FF0EE0206868
:1013B000FFF7A8FF2068FFF7AFFF07E02068FFF7FF
:1013C00097FF2068FFF7A8FF00E00125A07A00281A
:1013D0001FD0A07A012804D018D303280FD007D338
:1013E00014E02068FFF7BBFF2068FFF7A9FF10E0BB
:1013F0002068FFF7AAFF2068FFF7ACFF09E020682C
:10140000FFF79EFF2068FFF7A5FF02E028000225F6
:101410000543606800282BD0607A002803D002289A
:101420000FD007D314E06068FFF785FF6068FFF70F
:1014300064FF1DE06068FFF76AFF6068FFF771FFF7
:1014400016E06068FFF759FF6068FFF76AFF0FE07A
:101450002800042505430BE02068FFF753FF2068B0
:10146000FFF764FF6068FFF752FF6068FFF763FFF4
:10147000280032BD0EB4C0B5020003A801900020C0
:10148000009001AB0121044878440C3000F0D6F8FC
:10149000029906B0084700BFBF37000010B500240E
:1014A00008480168802252000A430260032000F0CD
:1014B00071F9002801D0012401E000F005F82000B6
:1014C000C0B210BD002002407047FEE70CB40122FC
:1014D00012060318DA4207D84B18DA4204D8020081
:1014E0000A43921802D288420CBC7047FCD0814259
:1014F000FAE7F446002804D4494200F013F84042C9
:1015000060474042002905D45FD000F00BF840420C
:1015100049426047494200F005F8494260470346A6
:101520000B43E6D40022030A8B420BD203098B4201
:1015300019D243088B422ED2411A00D201465241A1
:1015400010467047FF2209023FD012068B4205D396
:10155000121209028B4201D31212090203098B42B3
:1015600019D300E0090AC3098B4201D3CB01C01A89
:10157000524183098B4201D38B01C01A5241430966
:101580008B4201D34B01C01A524103098B4201D354
:101590000B01C01A5241C3088B4201D3CB00C01AC1
:1015A000524183088B4201D38B00C01A5241430839
:1015B0008B4201D34B00C01A5241884200D3401ADB
:1015C0005241CFD201461046704708B500F010F9DD
:1015D00008BDFEE71206130A1A43130C1A4300BF94
:1015E000094205D0830705D00270401C491EF9D17D
:1015F000704700001300103906D330B414001500F2
:1016000010393CC0FCD230BC490700D30CC000D517
:1016100004C0890002D30280801C002900D502701A
:10162000704770B506000800002B06D014001D009E
:101630002178B047641C6D1EFAD170BDF8B588B032
:10164000029000910392019309E00123039A00990B
:101650000298FFF7E6FF00900398401C0390039860
:101660000078002821D02528EFD1039840780399ED
:10167000891C03910100252812D0582867D06328BF
:1016800015D064281BD0692819D06F285FD0702826
:1016900064D073286AD0752859D0782857D0DEE7EF
:1016A0000098029A90470090D9E709B0F0BD0198E0
:1016B00000680168001D019A1060C9B2F0E7019846
:1016C00000680468001D01990860002C04D52D21D4
:1016D0000098029A9047009064206F2801D1082555
:1016E00006E020210143782901D00A2500E01025D9
:1016F0000B272600642803D1002C01D571420E006F
:1017000004007F1E049730002900FFF70BFF3031E3
:10171000C8B23A2802DB20005138091805A8C019C0
:101720000490017030002900FFF7FCFE060001D094
:10173000002FE6DC049C00980B21CD1BB3D0029E49
:101740002178B047641C6D1EFAD10296ABE701996F
:1017500009680C68091D019A1160BEE701980068CC
:101760000468001D019908607820B6E701980068B8
:101770000468001D01990860200000F03BF8050096
:10178000009890D0029E2178B047641C6D1EFAD15B
:10179000029688E738B50500002412490868002839
:1017A0001CD0FA2080000968FFF7BCFE01000E483B
:1017B0000068FFF7B7FE00F087F800280CD1042D71
:1017C00008D2002229000020C04300F078F8074822
:1017D000056004E0012402E0012400E0012420006F
:1017E000C0B232BDD400002000000020D000002094
:1017F0007047FEE7431C0178401C0942FBD1C01A28
:101800007047FEE7F0B5020052B2002A1BD4032253
:101810002F4B040064B2A40804256C431C59FF2517
:101820001600064008277E43B540AC438901C9B283
:10183000024008256A439140214340B280080422B7
:101840005043195022E00F24224A032305006DB2B1
:101850002540083DAD0804267543060076B23440A5
:10186000083CA408042674431659FF27BC461C00F4
:10187000044008277C436746A740BE438901C9B29C
:10188000034008204343994031435151F0BD80B596
:10189000411E80225204914201D301200EE0401EDD
:1018A0000D49086003210020C043FFF7ABFF002073
:1018B0000A49086007200A490860002002BD80B577
:1018C00040B2FFF79FFF01BD80B5FFF7E0FF02BD0B
:1018D00000E400E01CED00E014E000E018E000E0AF
:1018E00010E000E04903490B8162704781684C4A6F
:1018F0000A4001211143816070478168484A0A40CB
:10190000022111438160704781680800C007C00F41
:1019100070478168424A0A40042111438160704740
:10192000806881080800C007C00F7047006C80B253
:10193000704701680800C007C00F70470068810841
:101940000800C007C00F7047012101607047F8B55B
:101950000500280000F06CF8694608700024290092
:101960003048FFF7BFFF6D036D0B2E48FFF7BEFF3A
:1019700013E06D08641CE807FBD53000FFF7D6FFC5
:1019800029492200D2B202235A438852684600787D
:10199000401E694608706D08641C6846007800287F
:1019A0002CD0224F642038801E4E3000FFF7ACFF51
:1019B000002809D03000FFF7B3FF012804D0300021
:1019C000FFF7B7FF002807D13888401E388000B2E3
:1019D0000128E9DA032019E03000FFF79AFF6420BC
:1019E00038803000FFF7AAFF0028C4D13888401E95
:1019F000388000B20128F4DA032007E0094C200007
:101A0000FFF77BFF2000FFF79FFF0120F2BD064993
:101A1000800EC006C00E02225043085A70470000D4
:101A2000E8FFFF7F00240140440F00205C100020ED
:101A300000B50100002002004A03520B04E011002F
:101A4000491E11400A00401C002AF8D1C0B200BD56
:101A500004490160704780B50348FFF7F9FF01BDF5
:101A600000000000AAAA00000030004038B50400C1
:101A70000D0001E0FFF7EFFF2000290004A430CCA7
:101A800024184D410029F5D10028F3D131BD0000C3
:101A9000FFFFFFFFFFFFFFFF00B5BFF34F8F9E4823
:101AA0009E490860BFF34F8F00BFFDE7F1B582B0DC
:101AB0000F0000204E2069460870002698480078E4
:101AC000002804D197480078002800D0F7BD964D33
:101AD00080210902280000F049F98021C90128006D
:101AE00000F044F972B6FFF7B6FF80214900A0204C
:101AF000C00500F037F980218C4800F037F9002448
:101B00006846477011E000F0B5F805E000F044FCCD
:101B10000028F8D1FFF7C0FF8021380000F026F937
:101B200083480021FFF7A2FF641C2000C0B20228F6
:101B300074DA7E4F8021380000F014F980214901C9
:101B4000280000F00FF980218901280000F00AF92F
:101B50003000C0B2002805D168464178029800F0F4
:101B6000EDFC012673480021FFF780FF8021490129
:101B7000280000F0FBF880218901280000F0F6F829
:101B80006D480021FFF772FF00F0B4FD0100C9B2FB
:101B9000012902D0C0B20228BED100F060FD0028A9
:101BA000B4D000248021380000F0E0F800F0A2FD5D
:101BB0000100C9B2032902D0C0B2042818D1641CA4
:101BC000802676013100280000F0CCF880218901C0
:101BD000280000F0C7F857480021FFF747FF310001
:101BE000280000F0C3F880218901280000F0BEF829
:101BF00052480021FFF73AFF8021380000F0B2F888
:101C00004E480021FFF732FF2000C0B20328C9D19F
:101C10004B480021FFF72AFF0024C3E70121684653
:101C200000F08CFC00F0DFFE0A2000F0D0FE002067
:101C300000F020FE00F001F8FEE738B5404C14E05B
:101C40003A4D8021280000F08DF83E480021FFF732
:101C50000DFF8021280000F089F83A480021FFF7A5
:101C600005FF3948241800F037FA012CE8DAFFF7AD
:101C700013FF31BDF8B5354D0026002407E00124DF
:101C800080212A4800F072F800F026FA0026012D83
:101C900003DB00F081FB002802D1FFF7FDFEF1BD60
:101CA000FFF7D9FE2A482D1882204000361800F090
:101CB00021FD0100C9B2032902D0C0B204281FD1FE
:101CC000194E80214901300000F04CF88027BF01F7
:101CD0003900300000F046F816480021FFF7C6FE34
:101CE00080214901300000F041F83900300000F057
:101CF0003DF80F480021FFF7B9FE16482D18164E83
:101D000015488642C3D3E4B2002CB8D00024802109
:101D1000064800F027F8B7E70400FA050CED00E0EC
:101D20007F1000206C1000200004005000080050BC
:101D3000B2BB0500C811000090230000D9DD0200ED
:101D4000609455106C0700001DF1FFFF80B92A0058
:101D5000FCFEFFFF2BC2F1FFD80E0000816170472F
:101D60008162704780B5FFF7F9FF01BD80B5FFF7CD
:101D7000F7FF01BDC069C1080800C007C00F704768
:101D8000C06941090800C007C00F7047C069C10998
:101D90000800C007C00F7047082101627047406A01
:101DA000C0B27047C9B28162704781617047816279
:101DB0007047F0B502000023180015E027004740E7
:101DC0003E00F607F60FC0B24008F6B2002E02D071
:101DD00006008C207040E4B264086D1E2E00F6B23E
:101DE000002EEBD1521C5B1C8B4202DA14780825C2
:101DF000F4E7C0B2F0BD80B50079C0B2012804D0CC
:101E00000CD3032807D003D308E000F079FE05E0E7
:101E100000F086FE02E000F093FEFFE7002002BD26
:101E20000020704710B50400207901281FD100F070
:101E3000B3FA00281BD0A148A1785B22825C092359
:101E40005A4382189278914211D100210A005C23F2
:101E5000C25405225D23C25402005B325B23C35C83
:101E60005B1C13705B23C05C0A2800DB117010BD83
:101E700070B50500002001002C007E212970222170
:101E800069700926EE700121297101006971A8713C
:101E9000E978891E2800FFF78CFFE8717F202872FF
:101EA00035000BE0864E21783000FFF77BFF3000D5
:101EB000FFF76CFF0028FAD06D1E641C2800C0B22A
:101EC0000028EFD170BD00B54178262902D02A291B
:101ED00015D022E00179002903D10020794948700A
:101EE0000CE00179012903D101207649487005E011
:101EF0000079022802D10220724948700DE072492F
:101F00000279CA714279062353434B8080790622B5
:101F100042438A8001208871FFE7002000BD00B5A0
:101F200000796A4908706A480078012802D00120C7
:101F30006849087000BD80B50079012808D12021CA
:101F4000A020C005FFF731FF0120BA49087007E063
:101F50002021A020C005FFF72AFF0020B549087006
:101F600001BD00B558490279CA714279062353432D
:101F70004B808079062242438A80012088714A88FA
:101F8000002A05D18988002902D1BB49087002E0E6
:101F90000020B9490870002000BD00001CB50400F5
:101FA0006078212814D0232820D0242829D027285D
:101FB00020D0282813D02A2830D030283CD03128EF
:101FC00041D0322831D035284FD0FF284CD04FE0B7
:101FD0002000FFF710FF2000FFF74AFF50E020002D
:101FE000FFF71EFF2000FFF743FF49E02000FFF747
:101FF00019FF45E02000FFF766FF2000FFF738FFDC
:102000003EE030480178002907D16178242904D1C5
:102010002179012901D10121017031E02000FFF770
:10202000A0FF2000FFF724FF2AE02000FFF783FF36
:102030002000FFF71DFF23E02000FFF770FF2000C6
:10204000FFF716FF1CE0AB480021009101880B0050
:10205000DBB20021405E020092B2120AD2B23121FC
:10206000200000F0EBF80BE00AE000F019FA07E0BE
:102070000020009000235122FF21200000F0DEF814
:10208000002016BD70B504000498C24D2E78761C51
:102090002E707E26267061702978A1700921E1706A
:1020A00022716371A071E178891E2000FFF781FE23
:1020B000E0717F202072002070BD0000140E00200F
:1020C00000440040D40F0020B00F00206F1000200B
:1020D0006E1000206D100020F8B500252800B448CF
:1020E0000078012801D100F007F9092631002A0003
:1020F000B04C27683800FFF76DFAAD48007800282B
:1021000018D1AD4F3888002804D03888FA2149000A
:1021100088422BD100200090002300222421206837
:1021200000F08CF83888FA21490088421ED1280036
:1021300038801BE09E480078012817D19E4F3888D0
:10214000002804D03888FA214900884207D10020AD
:102150000090002300222721206800F06FF83888C3
:10216000FA214900884201D12800388031002A0034
:1021700026683000FFF72EFA206800F01FF920686B
:1021800000787E282BD12068007A7F2827D120680C
:10219000C178891E2068FFF70CFE2168C979C0B29A
:1021A000884208D00020009000235222FF2120689E
:1021B00000F044F83DE0B74E3078216889788842D5
:1021C00003D120684078232803D12068FFF7E6FE7A
:1021D00002E02068FFF74CFE20688078307000F045
:1021E000DBF8002803D072480078002803D1724839
:1021F0000188491C0180104CA079002802D000F011
:10220000F6FB0CE000F0E0FB062808D100F0A3FB91
:1022100008212A002000FFF7DDF900F0E4FB644804
:102220000078012805D100F0B7F8002801D100F0AE
:10223000F5F8F1BD75100020B00F00207CB500242A
:1022400006006C46247E0094DBB2D2B2C9B2FFF71E
:1022500019FF09240BE0904D31782800FFF7A2FD0B
:102260002800FFF793FD0028FAD0641E761C20009A
:10227000C0B20028EFD173BD7410002038B504003F
:102280006846007C0090DBB2D2B2C9B22000FFF7F2
:10229000F9FE09222100814C5A20205C0923584371
:1022A0002518280000F0ACFC20005A305A21615C4F
:1022B000491C01705A21615C0A2901DB002101706F
:1022C0005A20205C5B21615C88420BD120005B308E
:1022D0005B21615C491C01705B21615C0A2901DBA7
:1022E0000021017032480078012801D100F004F883
:1022F00031BD000062100020F8B5684C5C20205C05
:10230000002805D05C20205C401E5C2160543FE02A
:102310005A20205C5B21615C884239D0002025482E
:10232000076809252A005B21615C0923594361186C
:102330000668300000F064FC0BE0574E397830003E
:10234000FFF730FD3000FFF721FD0028FAD06D1EA9
:102350007F1C2800C0B20028EFD105205C2160540A
:102360005D21615C002905D05D20205C401E5D215F
:1023700060540DE05D21605420005B305B21615CA6
:10238000491C01705B21615C0A2901DB002101709D
:10239000F1BD00007310002000B540485A21415C97
:1023A0005B22805C814201D0012000E0002000BD62
:1023B000D40F0020D00F00205E100020F1B50026C1
:1023C000340009253000344F3800FFF7D9FC0028CD
:1023D0001FD122E03800FFF7E2FC0100C9B27E29DC
:1023E00005D13100C9B2002901D1012609253100EA
:1023F000C9B2002904D000992200D2B28854641CCA
:102400003800FFF7B7FC002802D03800FFF7C4FC03
:102410006D1E2800C0B20028DCD1F1BDF8B53F4CDC
:102420002088401C208000F0AAF93D4F3978C0B2C6
:1024300081420DD100F061FB3A490978C0B2814276
:1024400006D100F0EBFB38490978C0B2814201D0D7
:102450003648208000F093F93870324D00F04DFB83
:102460002870314E00F0DAFB30703078304909784E
:10247000090101433170208878280ADB0020208080
:10248000307800902B783A782F212A480068FFF79F
:10249000D5FEF1BDD801002000440040140E0020FC
:1024A00030B585B00024200020001021220001ADAD
:1024B0002800FFF78FF8204D2AE001A82978220094
:1024C00092B281546D1E210089B2022907D02100E9
:1024D00089B2052903D0210089B2072917D121002B
:1024E00089B2072900D1641C210089B2415C0091A6
:1024F000210089B24118491E0B78210089B2401889
:10250000801E027835210B480068FFF7B7FE641C77
:10251000200080B20828D0D305B030BD6010002064
:10252000761000207710002078100020FFFF0000B8
:1025300075100020D00F0020074E0008F8B584B0B9
:1025400004000E0000250020002102AA03C2083A60
:1025500000F068F807000020002C01D104205BE0A7
:102560002278002000900023D2B220212B4800685E
:10257000FFF784FE3000C0B2412801DA002F01D1FC
:10258000032049E02648C01B3100C9B288420BD263
:10259000032041E03000C0B205E008373000C0B28F
:1025A0000928F7DB0820361A3000C0B2002831D0E5
:1025B0000020002102AA03C2083A002512E002A866
:1025C00003C8009001912078002108226A4300F09E
:1025D0002BFB009A019B8018594102AA03C2083ABA
:1025E000641C6D1C3000C0B2092801DB082001E02A
:1025F0003000C0B22900C9B28142E0DB390002A834
:1026000000F043FB05002800C0B20128C5D0280017
:10261000C0B201E02800C0B205B0F0BDD00F00206C
:1026200000C0010830B52C4808E00CC808382EA4BA
:1026300030CCAB4201D1A24210D0083027498842A9
:102640000CD227498842F0D10CC8083826A430CCD7
:10265000AB4201D1A242E8D00020FFE730BD80B5F7
:10266000002068461F490A6802601D4900E00839D9
:102670001F4A91421FD308782038202809D30878B0
:102680004038182805D308788028F0DB0878FF2820
:10269000EDD06B460878187008000838904215D3C2
:1026A00008000838007858700800103890420FD39E
:1026B000103908789870684601784278914209D1BB
:1026C00081784078814205D1012004E0002002E0B9
:1026D000002000E0002002BD00A00108F9BF0108B1
:1026E000F8BF01080C010008FFFFFFFFFFFFFFFF1D
:1026F00001A00108F8B50020544CE01C0021017035
:1027000000216170002121700021A1700021017061
:1027100000202071002511E00120FFF718F94C4F2F
:102720000120FFF774F938604A4E00203070386895
:1027300000F028F8307000F056F86D1C2800C0B288
:102740001428E9DBE0780B2802DB0420207114E078
:10275000A0780B2802DB022020710EE020780B28E5
:1027600002DB0120207108E060780B2802DB0320E7
:10277000207102E03748007820712079F2BD33489B
:102780000079704700B532480168C8225200891AA2
:10279000314A914206D30168AF221201891A2F4AA9
:1027A000914201D203201DE00168EB22D200891A78
:1027B000792904D301682A4A891AA92901D201205A
:1027C00010E00168AF22D200891AF0225200914233
:1027D00005D300682349401A2349884201D20220C8
:1027E00000E0042000BD00B51A480078012806D09A
:1027F00029D303280CD014D304281BD023E013487A
:102800000178491C0170002141708170C1701AE08B
:102810000E48002101704278521C42708170C170D4
:1028200011E00A480021017041708278521C8270C8
:10283000C17008E005480021017041708170C178C5
:10284000491CC170FFE700BD00000000B80F002068
:10285000D80F00207910002085030000210300001C
:10286000D10700007A080000130200008161704760
:102870008162704710B5C0B2002809D0022815D077
:1028800030D304283CD01FD3062855D046D361E06E
:102890004C4C02212000FFF7E9FF08212000FFF740
:1028A000E7FF04212000FFF7E3FF53E0454C02213E
:1028B0002000FFF7DDFF08212000FFF7D9FF0421EA
:1028C0002000FFF7D3FF45E03E4C02212000FFF738
:1028D000CFFF08212000FFF7C9FF04212000FFF7E8
:1028E000C7FF37E0374C02212000FFF7BFFF082168
:1028F0002000FFF7BDFF04212000FFF7B7FF29E00C
:10290000304C02212000FFF7B3FF08212000FFF721
:10291000ADFF04212000FFF7A9FF1BE0294C022195
:102920002000FFF7A3FF08212000FFF79FFF0421ED
:102930002000FFF79DFF0DE0224C02212000FFF751
:1029400095FF08212000FFF791FF04212000FFF7E9
:102950008DFFFFE710BD10B51A4C02212000FFF7D4
:1029600087FF08212000FFF783FF04212000FFF7E5
:102970007FFF10BD30B50200D2B2FF2A20D0514AED
:1029800013880A2B1CDA504B1C7802256C4314194F
:10299000A478FF2C0FD11C7802256C431419A07069
:1029A0001878022460431018C1701088401C1080F1
:1029B0001878401C187018780A2801DB002018705D
:1029C00030BD0000000C005040480078704700B552
:1029D0000100C9B2092903D03C490978002901D175
:1029E0003A49087000BD002038490870704770B53A
:1029F000FFF7EAFF002803D0FFF7E6FF092817D109
:102A0000FFF7BDFE032813D13148007800280FD10D
:102A1000FFF7DAFF092808D100210620FFF7AAFFF7
:102A2000002027490870FFF7DEFF0620FFF7CFFFE1
:102A3000FFF7CAFF062840D1264C2088A18888428B
:102A40002FD2FFF79CFE03282BD1234D6088A8428C
:102A500007D1A088A84204D10121E079FFF78AFFBD
:102A60002BE020886188FEF75AFD002915D11B480C
:102A70000178002906D1012101700021E079FFF7DA
:102A800079FF05E0002101700121E079FFF772FF75
:102A9000A088A84201D1002020802088401C2080EE
:102AA0000BE0FFF758FF082100252A002600300020
:102AB000FEF790FDFFF797FFA57170BD00000000C5
:102AC0006E1000206C0F002071100020701000208C
:102AD00074100020B00F0020FA05000072100020D2
:102AE0000168012291430160704741627047C162F1
:102AF00070470121C94301617047204880787047C1
:102B000000B51E488178012904D001210A004270D5
:102B1000017004E00178012901D10021017000BD9C
:102B200000B516488178032904D0032141700121A2
:102B3000017004E00178012901D10021017000BD7C
:102B400000B51E488178032905D08178042902D078
:102B50008178062904D101210A00427001700CE03D
:102B60008178012905D08178022902D08178052950
:102B700003D1032141700121017000BD840F0020A9
:102B800010B50F4C2000FFF7ABFF0E492000FFF7F8
:102B9000AEFF00212000FFF7A8FF2000FFF7A9FFEC
:102BA000094C802109022000FFF7E0F88021C901CB
:102BB0002000FFF7DBF810BD00000000840F0020AC
:102BC00000140040140500000004005070B4103AD6
:102BD00003D378C9103A78C0FBD2530701D318C980
:102BE00018C001D508C908C0D20704D30B880380D8
:102BF000891C801C002A01D50B78037070BC7047BB
:102C00008B0701D18307E1D0124205D00B78491C14
:102C10000370401C521EF9D17047FEE7014800794D
:102C200070470000A80F0020D2B2203A03D3010061
:102C30009140002070475242D04152422032914090
:102C40004140D040904041407047FEE700B5012030
:102C50002A490A68002A08D5294A2A4B13602A4BB8
:102C600013600968002900D50320C0B200BD00B57B
:102C7000012022490A6880231B0613430B60096860
:102C8000002900D40320C0B200BDF8B5070001241C
:102C90002500002F03D000910098002801D10420C6
:102CA0002BE00098400701D0032026E0FFF7CEFF7D
:102CB00080225202154E306810400028F8D10020C2
:102CC000C04330600D4801680C4304600168022372
:102CD0009943016003CF083F009B03C3083B306862
:102CE00010400028FBD1FFF7C2FF306808490140BF
:102CF000002900D003252800C0B2F2BD14200240F4
:102D00000820024023016745AB89EFCD1020024027
:102D1000FA03000081B0B1490A6802430A600968F9
:102D200008400090009801B07047AD490A68104310
:102D30000860704700B5AB4909680140814201D184
:102D4000012000E0002000BDA64908607047A649A8
:102D500008607047016801220A43026070470168F9
:102D6000012291430160704741627047406A704799
:102D7000C16270470121C943016170478161704799
:102D800081627047E0B50C2200216846FDF74EFFD6
:102D90000220FFF7BFFFB648007801280FD10120BD
:102DA00000F010FC10200090002168460A0002721A
:102DB0004172022181726846FEF7E2FA0EE00220BB
:102DC00000F000FC202000906846012101720021E3
:102DD0004172022181726846FEF7D2FA07BDF8B54A
:102DE000A44EA54C2000FFF7C1FF30600020A34F88
:102DF000A34831683A688918491DFEF793FB9B493F
:102E0000086000212000FFF7AFFF2000FFF7A2FFBE
:102E10009C480078002811D19B4C2000FFF79FFFB1
:102E200030683968401841082000FFF7A1FF0021F1
:102E30002000FFF799FF2000FFF78CFF934D28003B
:102E4000FFF78DFF30680409E41E8A2C00D3892423
:102E5000FF2C01D9FF2402E07C2C00D27C2421002D
:102E60002800FFF785FF641E21002800FFF77CFF84
:102E70002800FFF76FFF0F247B4D288820407949F9
:102E8000088000F099FB012802D18148288000E0E9
:102E90002C803068386000F08FFBC0B200F0AFFBD0
:102EA000F1BD10B57B4C02212000FFF767FF082120
:102EB0002000FFF765FF04212000FFF761FFC82015
:102EC0000021FEF7D3FD02212000FFF759FF082162
:102ED0002000FFF755FF04212000FFF751FFC82015
:102EE0000021FEF7C3FDDDE700B5FEE7704738B50A
:102EF000614C2000FFF733FF674D2800FFF72FFFDD
:102F00009C2109012800FFF733FF00212800FFF76B
:102F10002BFF2800FFF71EFF2000FFF727FF4028A8
:102F200003D22000FFF716FF4AE0514C2078022818
:102F30000FD12020FFF7FEFE00280AD057480121BC
:102F4000017057490A68052A1AD300210A00227025
:102F500001705248017800290AD0AC490A68521C15
:102F60000A6009683C2903D300214D4A11600170B1
:102F7000444D287800280DD0022000F020FB1BE0F3
:102F80000868401C08602020FFF7E1FE2020FFF7C2
:102F9000DBFE21E0012000F012FB207800280BD19D
:102FA0002020FFF7C7FE002802D00120207001E09A
:102FB00002202070FFF7E6FEFFF711FF00202870C7
:102FC0002020FFF7C4FE2020FFF7BEFE1020FFF7F1
:102FD000BEFE1020FFF7B8FE31BD000034100240E5
:102FE00008180240101802400C1802403EB50C228E
:102FF00000216846FDF71AFE0220FFF78BFE1E4CEB
:103000002000FFF7ACFE2048FFF7A9FE202000902B
:103010006846012101720025290041720221817256
:103020006846FEF7ADF9102000906846FEF7A8F953
:103030000F480570002000F0C5FA002000F0BFFA2C
:10304000822149012000FFF793FE00212000FFF7B5
:103050008BFE2000FFF77EFE2000FFF78BFEFEF7C1
:10306000FAFC37BD6410002066100020E00F00203D
:103070007B100020DC0F0020002000400400002016
:1030800080B2E60E7A100020004801400044014062
:10309000FFFF0000000C00500040014080100020A5
:1030A000F80F0020FEB505000024200020002000BD
:1030B000694608707D48FEF74AFC7C48FEF7A7FC8D
:1030C0000700380000B200F0B5FA062804D17848AD
:1030D0000168491C016006E075480168002902D0BA
:1030E0000168491E016072480068022809D329203E
:1030F0006946087001206F49087001216846FEF793
:10310000D5FC019500F0A4FA00280FD100F0A6FA32
:1031100000280BD101980F2802D001981F2805D153
:1031200080214900A020C005FEF71CFE6248FEF782
:103130000EFC624D6248FEF76AFCC1430805000DB3
:103140003B21484328605F48FEF761FCC143080506
:10315000000D3B214843686000F07AFA00282CD12A
:1031600000F07CFA002828D101980F2802D001989D
:103170001F2822D14D48FEF7EAFB80214900A020FC
:10318000C005FEF7F3FD504D504E306828604748AB
:10319000FEF73DFC306028683168401840084C4913
:1031A000411A4C4A914203D320004B49087004E075
:1031B0000121494A11704949086048480068381A95
:1031C000010009B2012906DB0121454A117000B254
:1031D0004449086005E042490C7000B24142414850
:1031E000016040480168404A5143016001980F283E
:1031F00002D001981F2807D10120FEF7A8FB01206B
:10320000FEF705FCB7490860F7BD0000FC0F002081
:1032100070B5364E3000FFF7ADFD354C2088401CB0
:1032200020800F25208828400F280DD13000FFF77F
:1032300096FD00213000FFF797FD2E493000FFF783
:1032400097FD3000FFF786FD208820282CDA00F05B
:1032500008FA01280CD120880F2809DAA24E300084
:10326000FEF775FB3000FEF7D2FB00B29F49086005
:103270002088FFF717FF208800F03EF8208800F034
:10328000A7F920882840082803D0208805400A2D67
:1032900008D1064C2000FEF75AFB2000FEF7B7FBD2
:1032A000A549086000F00EFA70BD00001000001083
:1032B000F00F00207F1000200006002C900F00204F
:1032C0000002002400040028080000200C00002058
:1032D000FF050000010400007C100020EC0F00201E
:1032E0007E100020E40F0020110600000044014081
:1032F00066100020D4300000F8B504000020010062
:1033000001009F490A78002A03D00A78FE2A00D0DB
:10331000E7E0774A1378002B00D1E2E00300009445
:103320001FE0984C984D1E00F6B204277E43AF591B
:10333000BC461F00FFB204267743E6596746B742F2
:103340000ED21E00F6B204277E43A4591E00F6B228
:1033500004277E43AC51009C8C4D1E00F6B2AC5548
:103360005B1C1C00E4B2032CDBDB009B1F2B00D09A
:10337000B7E01278012A02D10400012301E0012400
:103380000300824A2500EDB2555D163D052D07D29A
:103390007D4DE4B2042674432C597D4EB44206D2CE
:1033A00003007C4C237003007B4C237081E01C00E5
:1033B000E4B2042674432C59784DAC420FD2764BBC
:1033C0001C78052C05D1734C25786D1C257024784C
:1033D00000E004006F4D2C7005241C7069E01C0097
:1033E000E4B2145DA41F052C0FD26B4B1C78022C89
:1033F00005D1684C25786D1C2570247800E0040008
:10340000644D2C7002241C7053E01C00E4B2145D67
:10341000002C14D01C00E4B2145D062C0FDA5E4BB5
:103420001C78032C05D15B4C25786D1C2570247805
:1034300000E00400574D2C7003241C7039E01C0080
:10344000E4B2145D0B3C052C0FD2534B1C78042CBA
:1034500005D1504C25786D1C2570247800E00400BF
:103460004C4D2C7004241C7023E0DBB2D35C163B63
:10347000052B0FD2484B1C78062C05D1454C2578DE
:103480006D1C2570247800E00400424D2C70062449
:103490001C700EE0404B1C78FE2C05D13D4C25786D
:1034A0006D1C2570247800E004003A4D2C70FE2439
:1034B0001C70384B1B78052B02DB374B1B780B70CD
:1034C00001000AE0304B0C00E4B204256C431851B3
:1034D00003000C00E4B21355491C0B00DBB2032BB4
:1034E000F0DBF1BDD80F002002000004F40F002033
:1034F0007B10002010B501202A4908702848007868
:10350000012803D12020FFF710FC02E01020FFF774
:103510000CFC254C2000FFF722FC24492000FFF77B
:1035200027FC00212000FFF71FFC2000FFF712FC02
:103530002000FFF71FFC10BDE80F002010B51C4C49
:103540002000FFF70CFC9C2109012000FFF710FC74
:1035500080214901A020C005FEF704FC00212000C5
:10356000FFF702FC2000FFF7F5FB2000FFF702FC4D
:1035700010480078002801D1FFF7C2FA10BD000002
:103580007D100020900F00209C0F002000100020D4
:103590004B6E00008210002081100020931B000061
:1035A0007B1000207A10002000480140FFFF00003F
:1035B000004001407510002004480078704703491E
:1035C000087070470149487070470000140F0020D0
:1035D000F0B581B00025164E144F798800290CD023
:1035E00004007068E040C00702D5200031688847B9
:1035F0006D1C083678888542F3DB01B0F0BDF0B56C
:1036000081B000250A4E094C618800290BD00700C3
:103610007068002802D13800316888476D1C083670
:1036200060888542F4DB01B0F0BD0000541000203A
:10363000740A002001000720034A8918034A9142B6
:1036400000D30620704700BF50FEFFFFA10C000012
:10365000014800787047000083100020044800787B
:103660007047024800787047000000008410002076
:1036700085100020007870470021405E7047006888
:10368000704770B50C490D4A0D48C36814680D6841
:10369000022675436419641EA34201D2816802E0C8
:1036A000126809685118C069814201D1012000E007
:1036B000002070BD00000000041000200810002051
:1036C00010000020FEB50026F643B64C606B69463C
:1036D0000880606B000C69464880E76AE0690190E9
:1036E00068460088002809D1C3480178012900D024
:1036F00080E1002101700220E0627BE1606A0290BB
:10370000A06A0299814203D0BC48006802900CE094
:10371000BA4D28680299884205D0B7480078012838
:1037200001D100F0DBFC02982860B3480078002843
:1037300041D1B34D68460088694649884018401C0D
:10374000042148432860AF482968FDF7EBFEAE49E5
:103750000860AE4801900198AD4908600198AA49F7
:103760000968491E2A68514345180298854263D169
:103770000120A149087000200100A64A1170A64945
:103780000860A6490860A64908600100A54A1170B2
:10379000A5490870002000F057F90198E0610198F0
:1037A0002062964805602000883000F06AF93800F1
:1037B00002270743E762974D2878012808D101982E
:1037C0000299884204D000202870002000F03CF9C3
:1037D00000F0FAF900900098002800D1F1E000987C
:1037E000032800D1EDE08E480168491C0160009972
:1037F000022906D00099012905D18B4909780029B1
:1038000001D1216B01600121874A11700168226B8F
:10381000914262D300210160287800285DD101988F
:10382000029988420CD10120287001203843E062BF
:10383000012000F009F950E004203843E062D9E0AB
:103840000098042801D000F017F9714D28686C49E0
:1038500009684018401E02906F4800682968086097
:103860002868001D2860002627E0082070432018E3
:10387000C76B082070432018806B019001980328C3
:103880000ED10220019038006849019A04235A435E
:1038900089588847296808602868001D28603F1DEE
:1038A00038006249019A04235A4389588847296895
:1038B0000860761C2868001D2860029829688842E4
:1038C000D3D2029E761CE0684D4909687118491EE2
:1038D000884202D2A668A06828600098022851D1C8
:1038E00050490878012805D147480068401E002249
:1038F0000A7018E04648E1690268914208D20068FF
:10390000E169401A3E490968FDF70CFE401E0AE0D5
:103910003D490D68E1690068081A39490968FDF7F1
:1039200001FE281A401E2100A4310A68824200D2FA
:1039300008683749324A0F68344B9C460500AD1C75
:1039400013685D4363465B199F4206D30968801C78
:1039500012685043081A606212E02B4B0500AD1C40
:103960001F68BD4208D209681B68181A801E1268B9
:1039700050430818606203E00868116840186062EC
:10398000606AA062009804280ED121480068E169AD
:10399000884224D10020C043864220D00120214902
:1039A00008701CE0100000200020C043864201D0B7
:1039B000E66126620098022811D10220A021605001
:1039C0000DE0009800280AD117480078002806D09A
:1039D00094202058000602D500200F4908600E48A8
:1039E0000168491C01600068002803D10B48016888
:1039F000491C0160F7BD00BF87100020081000209F
:103A000004100020980800001C100020DC01002099
:103A100014100020861000200C1000201010002030
:103A2000181000208810002089100020C4000020F9
:103A3000002061490860614908600121604A1268FC
:103A40009161A1490860704780B55E49086000280F
:103A500011D15948006801280DD19C480068002800
:103A600007D002205549086001205549096888613E
:103A700001E0FFF7DDFF01BD93480168491C0160CB
:103A8000704738B504004E4D2C6003204B49086048
:103A9000E068002803D100208D49086009E0E06952
:103AA000002803D101208A49086002E002208849E9
:103AB0000860206A012803D101208449086002E0DF
:103AC0000020824908606068002807D100208149F1
:103AD0000860286880688049087051E060680128A3
:103AE00007D101207B490860286880687B490880ED
:103AF00046E06068022807D10220764908602868FD
:103B00008068774908603BE06068042807D104209A
:103B100070490860286880687249087030E0606801
:103B2000052807D105206B490860286880686E4920
:103B3000088025E06068072807D1072065490860EC
:103B400028688068694908601AE06068082810D110
:103B50000820604908602868243003C800F0EEFAA5
:103B60006349086028680068032188432968086061
:103B700006E0062057490860286880689C4908606C
:103B8000E068400603D5286840699A49086031BD5D
:103B900000B54F480068022808D00220084909688B
:103BA0008861042094490860012003E004209249C0
:103BB0000860022000BD00005010002024100020EA
:103BC000201000204C10002070B5414C20680028C7
:103BD00001D1012076E0884D2868042802D100F048
:103BE0001DFA6FE0286803281CD18448012102686F
:103BF00012690A40002A38D00022334B1A60036849
:103C0000DB681B071B0F002B06D1022100688161B6
:103C100004202860012055E02368012B20D12A6070
:103C200000688161754E30688069012844D1306830
:103C300000692868022805D1FFF723FD012816D165
:103C4000FFF7F6FE2868002819D13068C0688007A1
:103C50000FD500F04FF8002811D0012028600EE0A9
:103C600002222A6000688161DCE700202AE003204C
:103C700028E000F0C5F8002801D00120286028685D
:103C8000012819D13068C06880070AD500F0B8F85B
:103C9000002803D100F040F900280DD0FFF778FF8D
:103CA00010E000F027F8002803D100F035F90028D3
:103CB00002D0FFF76DFF05E02068022801D1042043
:103CC00000E0002070BD00004810002030100020EF
:103CD000281000202C1000208B1000206A100020DB
:103CE000381000208A100020681000203C100020AE
:103CF0004010002080B58248006800280ED00128BE
:103D00001AD0022826D0042830D005283AD0062818
:103D100044D007284ED0082859D067E079480021C0
:103D2000405636490968096800228956884201DAF6
:103D3000012000E000205AE073480021405E2F4936
:103D4000096809680022895E884201DA012000E0E2
:103D500000204CE06D480068284909680968096836
:103D6000884201DA012000E0002040E06848007845
:103D70002249096809680978884201D2012000E0D7
:103D8000002034E0634800881C49096809680988F4
:103D9000884201D2012000E0002028E01448006899
:103DA0001649096809680968884201D2012000E0C3
:103DB00000201CE0974800681049096809680968F4
:103DC000FDF784FB01D2012000E000200FE09248C3
:103DD000006800F0E5F9094A126812680CCA00F0A0
:103DE000F8F901D2012000E0002000E0002002BD2F
:103DF0003410002044100020241000202010002047
:103E000080B53F48006800280ED001281AD002284B
:103E100026D0042830D005283AD0062844D00728D8
:103E20004ED0082859D069E0AB48006800680021EE
:103E30004056344900228956884201DA012000E0C8
:103E400000205CE0A448006800680021405E2E4924
:103E50000022895E884201DA012000E000204EE065
:103E60009D4800680068006828490968884201DAAE
:103E7000012000E0002042E09748006800680078D8
:103E800023490978884201D2012000E0002036E071
:103E900091480068006800881E490988884201D25C
:103EA000012000E000202AE08B48006800680068DC
:103EB00093490968884201D2012000E000201EE0F9
:103EC000854800680068006852490968FDF7FEFAF5
:103ED00001D2012000E0002011E04F48006800F00E
:103EE0005FF902000B007C480068006803C800F01E
:103EF00070F901D2012000E0002000E0002002BDA6
:103F00002C1000208B1000206A1000203810002098
:103F10008A1000206810002080B57A4800680028C8
:103F20000ED001281AD0022826D0042830D0052827
:103F30003AD0062844D007284ED0082859D067E048
:103F40007148006800680021405670490022895677
:103F5000884201D1012000E000205AE06A48006850
:103F600000680021405E6A490022895E884201D1D2
:103F7000012000E000204CE0634800680068006811
:103F800064490968884201D1012000E0002040E036
:103F90005D480068006800785F490978884201D16F
:103FA000012000E0002034E05748006800680088E5
:103FB0005A490988884201D1012000E0002028E008
:103FC00051480068006800684D490968884201D17D
:103FD000012000E000201CE04B48006800680068F9
:103FE0000C49096800F00EF901D1012000E0002021
:103FF0000FE00948006800F0D3F8434A12681268DD
:104000000CCA00F00FF901D1012000E0002000E00F
:10401000002002BD3C1000204010002000B52E48BA
:10402000016809690168C96870220A40002A01D143
:1040300001204FE00168C968890605D5384909683B
:10404000012901D0012045E040210268D2680A40E0
:10405000002A07D0334A1268334B1B689A4201DAB0
:10406000012037E00268D268D20626D52F4A1268AE
:10407000022A22D00268D2681140002911D02C49AE
:104080000968002903D002212A4A116002E00021B8
:10409000284A1160012100688161002021490860DF
:1040A00017E0002102681161006881610320214945
:1040B00008600120204908600BE0002102681161BE
:1040C00001688969012291430068816103201949CF
:1040D0000860002000BD00002010002000B5154839
:1040E000006803280BD1084801688969022906D1B4
:1040F00001680969002902D100210068816100BDC1
:10410000341000202C100020201000208B100020E4
:104110006A100020381000208A100020681000204B
:104120004C100020481000204410002028100020CF
:1041300030100020241000205010002001225205D1
:104140004B18DA4201D9581570475B0D0722D2018E
:104150009B1A10D9FF2B1DD2DB050122D2070A4082
:1041600013430903020D1143490AC200524100D909
:10417000491CC81870470AD1800A0A030243521228
:10418000921C04D9D3070B40D00518437047C80FC1
:10419000C0077047C80F0002FF30C0057047FEE738
:1041A000012212060118CA420AD28A420DD83822C8
:1041B000120609098918C20FD20711434007704738
:1041C00000D049080909014301E0C10FC9070020D7
:1041D000704730B4012464054D00EC420BD85D00FB
:1041E000EC4208D80C001C4364000443144304D27E
:1041F000994200D1904230BC7047FCD08B42FAD13A
:104200008242F8E7944602000A43921808D0884296
:1042100006D1012212060018D042084600D880427A
:104220006246704790420ED1A4460C001C43012800
:10423000644107D0994205D14C006415641C644068
:1042400000D30C036446704701488047014800478B
:10425000000000084B4C0008F0B4574801680068A3
:10426000884254D155480168006888424FD10121E5
:10427000514802680068904249D15048026800687D
:10428000904244D102224C480368006898423ED1D3
:104290004A4803680068984239D1032346480468B5
:1042A0000068A04233D1454804680068A0422ED17E
:1042B0000424414805680068A84228D13F480568A1
:1042C0000068A84223D105253B4806680068B04233
:1042D0001DD13A4806680068B04218D10626364813
:1042E00007680068B84212D1344807680068B842CD
:1042F0000DD10727304800688046404507D12F4838
:1043000000688046404502D10820804602E0F0BCAB
:10431000002070472848006881464845F7D1274863
:10432000006881464845F2D109208146224800684C
:1043300082465045EBD12148006882465045E6D17F
:104340000A2082461C48006883465845DFD11B4836
:10435000006883465845DAD10B208346164800682A
:1043600084466045D3D11548006884466045CED167
:104370000C20844612480129C9D1022AC7D1032B37
:10438000C5D1042CC3D1052DC1D1062EBFD1072F15
:10439000BDD108204045BAD109204845B7D10A20EF
:1043A0005045B4D10B205845B1D10C206045AED159
:1043B000F0BC01207047000004010008080100085B
:1043C0001543000800F00DF8002801D000F00CF8AB
:1043D00000BF00BF002000BF00BFFCF7B2FB00F031
:1043E00017F801207047FEE710B5074979441831E6
:1043F000064C7C44163404E0081D0A688918884776
:104400000100A142F8D110BD200900003C090000C4
:1044100080B500F001F801BD074600F005F8384608
:1044200000F01EF8FBE7FEE738B50C4C08252068C5
:10443000002808D00178890705D0032141560029BA
:1044400001D400F017F8241D6D1EF0D100220021C8
:104450000020C04300F04EF831BD00BFB001002085
:1044600080B500F04FF8024A11001820ABBEFBE700
:104470002600020070B504000DD02078800703D01C
:1044800003202056002809D500BF00BF200000F0FF
:1044900077F800BF00BF0020C04370BD200000F0CF
:1044A000FDF8060000BF00BF2078400602D5606816
:1044B00000F014F90025656003202056022805D974
:1044C00000F010F9002801D00026F643E06B002828
:1044D00009D000F013F9002801D00026F643E06B64
:1044E00000F0FCF8E563200000F04AF800BF00BFD0
:1044F000300070BD80B5002802D400F009F902BD7B
:10450000002002BD10B500F013F902000023DB43C8
:1045100000241068984203D011000220ABBE146042
:104520005068984203D0111D0220ABBE546010BDEC
:10453000F0B583B0040000F0FBF8A10047183D6817
:104540000026F643B54216D100BF00BF3D68B54214
:104550000FD100BF09A00090002C01D1002000E085
:10456000042001900320029069460120ABBE0500A3
:104570003D6000BF00BF280003B0F0BD3A74740076
:104580001CB50021027812062ED50023254A146896
:104590000094844202D19B00D15022E00123546850
:1045A00000948442F7D00223946800948442F2D0AD
:1045B0000323D46800948442EDD00423146900944A
:1045C0008442E8D00523546900948442E3D0062352
:1045D000946900948442DED00723D4690094844215
:1045E000D9D000F07BF813BD0180C943C170010030
:1045F0004431416001004431C16001004431016136
:1046000001004431416101004431816101004431C4
:10461000C16101004431016201003031416213BDCA
:1046200000000000B0010020F8B5060000BF00BF88
:10463000308880042DD5002574680027FF4300E0F2
:10464000241803203056F1688C4208D20A1B21003E
:10465000FFF750FFB84208D00028F1D105E0002252
:104660000021FFF747FFB84200D101257068F060D4
:10467000B061F0613088002D08D0802189000143AD
:104680003180300000BF00BF3800F2BD1149014049
:104690003180300000BF00BF0020F2BDF8B5002817
:1046A00015D100BF00BF00240B4D08260027FF4393
:1046B0002868002804D0FFF7B7FF002800D53C0089
:1046C0002D1D761EF4D100BF00BF2000F2BDFFF704
:1046D000ABFFF2BDFFDF0000B001002080B500F0AD
:1046E00082F801BD1CB50200009269460220ABBEF3
:1046F0000400100000F0C0F8200016BDE0B50090E6
:10470000FDF778F8019069460E20ABBE03B000BDFE
:1047100080B5002901D1002002BD012801D0022866
:1047200002D100F00BF902BD00F018F902BDFEE75E
:1047300000487047D001002010B5040000BF00BF42
:10474000200000F005F8040000BF00BF200010BDED
:1047500070B504000F3407218C43A0422CD2082CE2
:1047600004D2082402E0083000F048F841490A6801
:10477000100005D1002207E01D68A5420DD2181DCA
:104780000368002BF8D11268081D00E0181D0368AB
:1047900093420DD01D68A542F8D300280CD00268C2
:1047A00013681D00083DA54208D2536803600DE060
:1047B00000F0E6F80028D6D1002070BD151905607C
:1047C00056686E601B1B05682B601460006800282B
:1047D00004D04368002B01D0001D00E000200860D9
:1047E0001000083070BD10B5040006D000BF00BF37
:1047F000200000F003F800BF00BF10BD002800D16A
:10480000704770B408380268072A30D951072ED192
:1048100018494B68002B01D0984203D2436048608E
:1048200017E02B005D68002D01D08542F9D31D688B
:104830005E19B0421BD3864203D1A8181860180035
:1048400007E05C68002C02D0821894420FD34460C9
:1048500058604268002A0AD00368C418944206D1FE
:1048600000240C601168591801605168416070BCE7
:1048700070470000C00F002030B4002100232E4AF2
:1048800014002568854211D05B1CA56885420DD0B7
:104890005B1C2569854209D05B1CA569854205D052
:1048A0005B1C2034102BECD330BC7047DB00D218DB
:1048B00011605160F8E770B400241F4B1D002E6892
:1048C0008E4211D0641CAE688E420DD0641C2E69DD
:1048D0008E4209D0641CAE698E4205D0641C20351E
:1048E000102CECD370BC70470100E4001B19012AA6
:1048F00001D15A6889185960F4E710B400220E49B2
:104900000B001C68844212D0521C9C6884420ED05A
:10491000521C1C6984420AD0521C9C69844206D0F5
:10492000521C2033102AECD3002010BC7047D0005A
:1049300008184068F9E70000940D002030B583B0F6
:104940000C0015000120FFF7F3FD00900194029583
:1049500069460520ABBE281A03B030BD18B583B038
:104960000300140000930191029469460520ABBE38
:1049700001221900201AFFF79EFF04B010BDFEE7C8
:1049800007490868002801D0002070470548072221
:104990009043086004499143091A0160704700BFC1
:1049A00058100020971400209016002080B502496E
:1049B00000F004F802BD00BF2001002038B50C0053
:1049C000C5B2200000BF00BFE068A169884204D3DF
:1049D000200000F01DF800280FD4E068411CE160C1
:1049E00005702088010503D440050CD50A2D0AD195
:1049F0002000FFF753FE002805D0200000BF00BFB5
:104A00000020C04332BD200000BF00BF280032BDDF
:104A100038B50400E068A169884255D321880A00AE
:104A20002A4B1340022B09D0080402D580208000B5
:104A300001E08420C001084320803FE0C025ED0153
:104A40002A40AA4207D1A168884204D32000FFF778
:104A500025FE002832D12088E90801401ED1606877
:104A600021004431884219D180208000FFF764FE84
:104A70006060002806D1200044306060E060401C87
:104A8000A0600BE0218840220A432280E060802160
:104A900089004118A16060616068E0616068206120
:104AA000A068A061207840070BD5022200212000D9
:104AB00000F00EF80021C943884202D10020C04313
:104AC00032BD208805432580002032BD02900000C1
:104AD00070B504000D00160000BF00BF33002A00AF
:104AE0000021200000F006F80500200000BF00BFF4
:104AF000280070BDF8B505000E0014001F002878CE
:104B0000800739D02800FFF7C9FD002834D100966E
:104B10003046002801D003C82418012F32D128883C
:104B2000C00416D52A004432296A280000F052F841
:104B300006002A6B002A00D12A69E968280000F0E3
:104B400049F8A11B0C1A6A69E968280000F042F8CC
:104B5000241A002C05D1002F0AD10020C043844222
:104B60000AD03A0021000320285600F039F804004A
:104B70000020C043844208D1232000BF00BF002092
:104B8000C043F2BD022FE6D1EBE72888C02189019E
:104B900001400ED06868E86028616861A8616868B3
:104BA000E861280044302862280030306862002024
:104BB00028630098002804D0083003C82A00343243
:104BC00003C228880249014029800020F2BD00BFAD
:104BD000FFCE0000914201D2501A7047002070476A
:104BE0003EB504000D00012A02D1FFF786FE07E062
:104BF000022A07D100940020019069460C20ABBE28
:104C00002D1801E0002A0CD10094019569460A2074
:104C1000ABBE002805D1002221002800FFF74BFE83
:104C200001E00020C04303B030BDFEE7FEE7FEE731
:104C3000FEE7FEE7FEE7FEE7FEE7FEE7FEE7FEE74C
:104C4000FEE7FEE7FEE7FEE7FEE700BF00BF00BFAE
:104C500000BFFFF7B7FB38B505000C002000FFF7D9
:104C6000A5FEA04200D00025280032BD70B401236B
:104C7000002413E00168001D194202D04D466D1E4C
:104C800049190C60091D121F042AFAD20D0096075B
:104C900001D50C80AD1C1A4000D02C700268001D9C
:104CA000002AE7D170BC7047F1B40168421841682E
:104CB0004808131800988068C9071ED5494640184F
:104CC0001BE01778521C0770401C761EF9D1002C8F
:104CD00013D01678521C89080D40032D01D1157888
:104CE000521C290271184D424119A41C05D00D789F
:104CF000491C0570401C641EF9D19A420FD01178EE
:104D0000521C032503260E4002D11678F61C521CB5
:104D10000C090F2CD9D114780F34521CD5E7009808
:104D20000C30F2BC7047000045FFFFFFB00E0000E2
:104D3000DC0100200000000071FFFFFF0C000000FC
:104D4000440100000000002050070024F400230864
:104D500000000004100FA7258F0408070000DC01E5
:104D60000020730A00200A1712010443194014217D
:104D70000443700A044300001C2101F23E02082192
:104D800001F3150600011003753600087904127F3F
:104D9000045204B0120109121CAC121D04521C046E
:104DA000214FA10852080CF10B01200A0204010155
:104DB000C40E0020140F00200821042134610812C1
:104DC0006444F213504850020802027440527404C2
:104DD0002134610812AC44F21298481003D8000044
:104DE000202028F206682C62FF010000000000006D
:104DF000A2FA0232000000000000000000000000E3
:084E00006131302E30365033D1
:0400000508004C4B58
:00000001FF
